{"abi":[{"type":"constructor","inputs":[{"name":"entranceFee","type":"uint256","internalType":"uint256"},{"name":"interval","type":"uint256","internalType":"uint256"},{"name":"vrfCoordinator","type":"address","internalType":"address"},{"name":"gasLane","type":"bytes32","internalType":"bytes32"},{"name":"subscriptionId","type":"uint256","internalType":"uint256"},{"name":"callbackGasLimit","type":"uint32","internalType":"uint32"}],"stateMutability":"nonpayable"},{"type":"function","name":"acceptOwnership","inputs":[],"outputs":[],"stateMutability":"nonpayable"},{"type":"function","name":"checkUpkeep","inputs":[{"name":"","type":"bytes","internalType":"bytes"}],"outputs":[{"name":"upkeepNeeded","type":"bool","internalType":"bool"},{"name":"","type":"bytes","internalType":"bytes"}],"stateMutability":"view"},{"type":"function","name":"enterRaffle","inputs":[],"outputs":[],"stateMutability":"payable"},{"type":"function","name":"getEntranceFee","inputs":[],"outputs":[{"name":"","type":"uint256","internalType":"uint256"}],"stateMutability":"view"},{"type":"function","name":"getPlayer","inputs":[{"name":"indexOfPlayer","type":"uint256","internalType":"uint256"}],"outputs":[{"name":"","type":"address","internalType":"address"}],"stateMutability":"view"},{"type":"function","name":"getRaffleState","inputs":[],"outputs":[{"name":"","type":"uint8","internalType":"enum Raffle.RaffleState"}],"stateMutability":"view"},{"type":"function","name":"owner","inputs":[],"outputs":[{"name":"","type":"address","internalType":"address"}],"stateMutability":"view"},{"type":"function","name":"performUpkeep","inputs":[{"name":"","type":"bytes","internalType":"bytes"}],"outputs":[],"stateMutability":"nonpayable"},{"type":"function","name":"rawFulfillRandomWords","inputs":[{"name":"requestId","type":"uint256","internalType":"uint256"},{"name":"randomWords","type":"uint256[]","internalType":"uint256[]"}],"outputs":[],"stateMutability":"nonpayable"},{"type":"function","name":"s_vrfCoordinator","inputs":[],"outputs":[{"name":"","type":"address","internalType":"contract IVRFCoordinatorV2Plus"}],"stateMutability":"view"},{"type":"function","name":"setCoordinator","inputs":[{"name":"_vrfCoordinator","type":"address","internalType":"address"}],"outputs":[],"stateMutability":"nonpayable"},{"type":"function","name":"transferOwnership","inputs":[{"name":"to","type":"address","internalType":"address"}],"outputs":[],"stateMutability":"nonpayable"},{"type":"event","name":"CoordinatorSet","inputs":[{"name":"vrfCoordinator","type":"address","indexed":false,"internalType":"address"}],"anonymous":false},{"type":"event","name":"OwnershipTransferRequested","inputs":[{"name":"from","type":"address","indexed":true,"internalType":"address"},{"name":"to","type":"address","indexed":true,"internalType":"address"}],"anonymous":false},{"type":"event","name":"OwnershipTransferred","inputs":[{"name":"from","type":"address","indexed":true,"internalType":"address"},{"name":"to","type":"address","indexed":true,"internalType":"address"}],"anonymous":false},{"type":"event","name":"RaffleEntered","inputs":[{"name":"player","type":"address","indexed":true,"internalType":"address"}],"anonymous":false},{"type":"event","name":"WinnerPicked","inputs":[{"name":"winner","type":"address","indexed":true,"internalType":"address"}],"anonymous":false},{"type":"error","name":"OnlyCoordinatorCanFulfill","inputs":[{"name":"have","type":"address","internalType":"address"},{"name":"want","type":"address","internalType":"address"}]},{"type":"error","name":"OnlyOwnerOrCoordinator","inputs":[{"name":"have","type":"address","internalType":"address"},{"name":"owner","type":"address","internalType":"address"},{"name":"coordinator","type":"address","internalType":"address"}]},{"type":"error","name":"Raffle__RaffleNotOpen","inputs":[]},{"type":"error","name":"Raffle__SendMoreToEnterRaffle","inputs":[]},{"type":"error","name":"Raffle__UpkeepNotNeeded","inputs":[{"name":"balance","type":"uint256","internalType":"uint256"},{"name":"payersLength","type":"uint256","internalType":"uint256"},{"name":"raffleState","type":"uint8","internalType":"enum Raffle.RaffleState"}]},{"type":"error","name":"Raffle__transferFailed","inputs":[]},{"type":"error","name":"ZeroAddress","inputs":[]}],"bytecode":{"object":"0x6101206040523480156200001257600080fd5b506040516200234e3803806200234e8339818101604052810190620000389190620004a7565b83338060008073ffffffffffffffffffffffffffffffffffffffff168273ffffffffffffffffffffffffffffffffffffffff1603620000ae576040517f08c379a0000000000000000000000000000000000000000000000000000000008152600401620000a590620005a4565b60405180910390fd5b816000806101000a81548173ffffffffffffffffffffffffffffffffffffffff021916908373ffffffffffffffffffffffffffffffffffffffff160217905550600073ffffffffffffffffffffffffffffffffffffffff168173ffffffffffffffffffffffffffffffffffffffff1614620001355762000134816200025760201b60201c565b5b505050600073ffffffffffffffffffffffffffffffffffffffff168173ffffffffffffffffffffffffffffffffffffffff16036200019f576040517fd92e233d00000000000000000000000000000000000000000000000000000000815260040160405180910390fd5b80600260006101000a81548173ffffffffffffffffffffffffffffffffffffffff021916908373ffffffffffffffffffffffffffffffffffffffff1602179055505085608081815250508460a081815250508260c081815250508160e081815250508063ffffffff166101008163ffffffff1681525050426004819055506000600560146101000a81548160ff02191690836001811115620002465762000245620005c6565b5b021790555050505050505062000667565b3373ffffffffffffffffffffffffffffffffffffffff168173ffffffffffffffffffffffffffffffffffffffff1603620002c8576040517f08c379a0000000000000000000000000000000000000000000000000000000008152600401620002bf9062000645565b60405180910390fd5b80600160006101000a81548173ffffffffffffffffffffffffffffffffffffffff021916908373ffffffffffffffffffffffffffffffffffffffff1602179055508073ffffffffffffffffffffffffffffffffffffffff1660008054906101000a900473ffffffffffffffffffffffffffffffffffffffff1673ffffffffffffffffffffffffffffffffffffffff167fed8889f560326eb138920d842192f0eb3dd22b4f139c87a2c57538e05bae127860405160405180910390a350565b600080fd5b6000819050919050565b620003a0816200038b565b8114620003ac57600080fd5b50565b600081519050620003c08162000395565b92915050565b600073ffffffffffffffffffffffffffffffffffffffff82169050919050565b6000620003f382620003c6565b9050919050565b6200040581620003e6565b81146200041157600080fd5b50565b6000815190506200042581620003fa565b92915050565b6000819050919050565b62000440816200042b565b81146200044c57600080fd5b50565b600081519050620004608162000435565b92915050565b600063ffffffff82169050919050565b620004818162000466565b81146200048d57600080fd5b50565b600081519050620004a18162000476565b92915050565b60008060008060008060c08789031215620004c757620004c662000386565b5b6000620004d789828a01620003af565b9650506020620004ea89828a01620003af565b9550506040620004fd89828a0162000414565b94505060606200051089828a016200044f565b93505060806200052389828a01620003af565b92505060a06200053689828a0162000490565b9150509295509295509295565b600082825260208201905092915050565b7f43616e6e6f7420736574206f776e657220746f207a65726f0000000000000000600082015250565b60006200058c60188362000543565b9150620005998262000554565b602082019050919050565b60006020820190508181036000830152620005bf816200057d565b9050919050565b7f4e487b7100000000000000000000000000000000000000000000000000000000600052602160045260246000fd5b7f43616e6e6f74207472616e7366657220746f2073656c66000000000000000000600082015250565b60006200062d60178362000543565b91506200063a82620005f5565b602082019050919050565b6000602082019050818103600083015262000660816200061e565b9050919050565b60805160a05160c05160e05161010051611c9b620006b36000396000610614015260006105e3015260006105bd0152600061071701526000818161029c015261039f0152611c9b6000f3fe6080604052600436106100a75760003560e01c806379ba50971161006457806379ba50971461019c5780638da5cb5b146101b35780638ea98117146101de5780639eccacf614610207578063e55ae4e814610232578063f2fde38b1461026f576100a7565b806309bc33a7146100ac578063115cbaf5146100d75780631fe543e3146101025780632cfcc5391461012b5780634585e33b146101355780636e04ff0d1461015e575b600080fd5b3480156100b857600080fd5b506100c1610298565b6040516100ce919061115b565b60405180910390f35b3480156100e357600080fd5b506100ec6102c0565b6040516100f991906111ed565b60405180910390f35b34801561010e57600080fd5b50610129600480360381019061012491906112ad565b6102d7565b005b61013361039d565b005b34801561014157600080fd5b5061015c60048036038101906101579190611363565b61050c565b005b34801561016a57600080fd5b50610185600480360381019061018091906114f1565b61070f565b6040516101939291906115d4565b60405180910390f35b3480156101a857600080fd5b506101b16107d1565b005b3480156101bf57600080fd5b506101c8610966565b6040516101d59190611645565b60405180910390f35b3480156101ea57600080fd5b506102056004803603810190610200919061168c565b61098f565b005b34801561021357600080fd5b5061021c610b70565b6040516102299190611718565b60405180910390f35b34801561023e57600080fd5b5061025960048036038101906102549190611733565b610b96565b6040516102669190611645565b60405180910390f35b34801561027b57600080fd5b506102966004803603810190610291919061168c565b610bde565b005b60007f0000000000000000000000000000000000000000000000000000000000000000905090565b6000600560149054906101000a900460ff16905090565b600260009054906101000a900473ffffffffffffffffffffffffffffffffffffffff1673ffffffffffffffffffffffffffffffffffffffff163373ffffffffffffffffffffffffffffffffffffffff161461038d5733600260009054906101000a900473ffffffffffffffffffffffffffffffffffffffff166040517f1cf993f4000000000000000000000000000000000000000000000000000000008152600401610384929190611760565b60405180910390fd5b610398838383610bf2565b505050565b7f00000000000000000000000000000000000000000000000000000000000000003410156103f7576040517f3038c00a00000000000000000000000000000000000000000000000000000000815260040160405180910390fd5b6000600181111561040b5761040a611176565b5b600560149054906101000a900460ff16600181111561042d5761042c611176565b5b14610464576040517fd24a271400000000000000000000000000000000000000000000000000000000815260040160405180910390fd5b6003339080600181540180825580915050600190039060005260206000200160009091909190916101000a81548173ffffffffffffffffffffffffffffffffffffffff021916908373ffffffffffffffffffffffffffffffffffffffff1602179055503373ffffffffffffffffffffffffffffffffffffffff167f634f3211e3a4e43fee5a21ad9f87ca153b300fc78b1c557a2057dbe9c63bcb4760405160405180910390a2565b60006105266040518060200160405280600081525061070f565b509050806105835747600380549050600560149054906101000a900460ff166040517fab3439a700000000000000000000000000000000000000000000000000000000815260040161057a93929190611789565b60405180910390fd5b6001600560146101000a81548160ff021916908360018111156105a9576105a8611176565b5b021790555060006040518060c001604052807f000000000000000000000000000000000000000000000000000000000000000081526020017f00000000000000000000000000000000000000000000000000000000000000008152602001600361ffff1681526020017f000000000000000000000000000000000000000000000000000000000000000063ffffffff168152602001600163ffffffff168152602001610665604051806020016040528060001515815250610e47565b8152509050600260009054906101000a900473ffffffffffffffffffffffffffffffffffffffff1673ffffffffffffffffffffffffffffffffffffffff16639b1c385e826040518263ffffffff1660e01b81526004016106c591906118f7565b6020604051808303816000875af11580156106e4573d6000803e3d6000fd5b505050506040513d601f19601f82011682018060405250810190610708919061192e565b5050505050565b6000606060007f000000000000000000000000000000000000000000000000000000000000000060045442610744919061198a565b10159050600080600181111561075d5761075c611176565b5b600560149054906101000a900460ff16600181111561077f5761077e611176565b5b1490506000804711905060008060038054905011905083801561079f5750825b80156107a85750815b80156107b15750805b955085604051806020016040528060008152509550955050505050915091565b600160009054906101000a900473ffffffffffffffffffffffffffffffffffffffff1673ffffffffffffffffffffffffffffffffffffffff163373ffffffffffffffffffffffffffffffffffffffff1614610861576040517f08c379a000000000000000000000000000000000000000000000000000000000815260040161085890611a1b565b60405180910390fd5b60008060009054906101000a900473ffffffffffffffffffffffffffffffffffffffff169050336000806101000a81548173ffffffffffffffffffffffffffffffffffffffff021916908373ffffffffffffffffffffffffffffffffffffffff1602179055506000600160006101000a81548173ffffffffffffffffffffffffffffffffffffffff021916908373ffffffffffffffffffffffffffffffffffffffff1602179055503373ffffffffffffffffffffffffffffffffffffffff168173ffffffffffffffffffffffffffffffffffffffff167f8be0079c531659141344cd1fd0a4f28419497f9722a3daafe3b4186f6b6457e060405160405180910390a350565b60008060009054906101000a900473ffffffffffffffffffffffffffffffffffffffff16905090565b610997610966565b73ffffffffffffffffffffffffffffffffffffffff163373ffffffffffffffffffffffffffffffffffffffff1614158015610a205750600260009054906101000a900473ffffffffffffffffffffffffffffffffffffffff1673ffffffffffffffffffffffffffffffffffffffff163373ffffffffffffffffffffffffffffffffffffffff1614155b15610a8f5733610a2e610966565b600260009054906101000a900473ffffffffffffffffffffffffffffffffffffffff166040517f061db9c1000000000000000000000000000000000000000000000000000000008152600401610a8693929190611a3b565b60405180910390fd5b600073ffffffffffffffffffffffffffffffffffffffff168173ffffffffffffffffffffffffffffffffffffffff1603610af5576040517fd92e233d00000000000000000000000000000000000000000000000000000000815260040160405180910390fd5b80600260006101000a81548173ffffffffffffffffffffffffffffffffffffffff021916908373ffffffffffffffffffffffffffffffffffffffff1602179055507fd1a6a14209a385a964d036e404cb5cfb71f4000cdb03c9366292430787261be681604051610b659190611645565b60405180910390a150565b600260009054906101000a900473ffffffffffffffffffffffffffffffffffffffff1681565b600060038281548110610bac57610bab611a72565b5b9060005260206000200160009054906101000a900473ffffffffffffffffffffffffffffffffffffffff169050919050565b610be6610edf565b610bef81610f6f565b50565b600060038054905083836000818110610c0e57610c0d611a72565b5b90506020020135610c1f9190611ad0565b9050600060038281548110610c3757610c36611a72565b5b9060005260206000200160009054906101000a900473ffffffffffffffffffffffffffffffffffffffff16905080600560006101000a81548173ffffffffffffffffffffffffffffffffffffffff021916908373ffffffffffffffffffffffffffffffffffffffff1602179055506000600560146101000a81548160ff02191690836001811115610ccb57610cca611176565b5b0217905550600067ffffffffffffffff811115610ceb57610cea6113c6565b5b604051908082528060200260200182016040528015610d195781602001602082028036833780820191505090505b5060039080519060200190610d2f92919061109b565b5042600481905550600560009054906101000a900473ffffffffffffffffffffffffffffffffffffffff1673ffffffffffffffffffffffffffffffffffffffff167f5b690ec4a06fe979403046eaeea5b3ce38524683c3001f662c8b5a829632f7df60405160405180910390a260008173ffffffffffffffffffffffffffffffffffffffff1647604051610dc290611b32565b60006040518083038185875af1925050503d8060008114610dff576040519150601f19603f3d011682016040523d82523d6000602084013e610e04565b606091505b5050905080610e3f576040517f9594d81300000000000000000000000000000000000000000000000000000000815260040160405180910390fd5b505050505050565b60607f92fd13387c7fe7befbc38d303d6468778fb9731bc4583f17d92989c6fcfdeaaa82604051602401610e7b9190611b72565b604051602081830303815290604052907bffffffffffffffffffffffffffffffffffffffffffffffffffffffff19166020820180517bffffffffffffffffffffffffffffffffffffffffffffffffffffffff83818316178352505050509050919050565b60008054906101000a900473ffffffffffffffffffffffffffffffffffffffff1673ffffffffffffffffffffffffffffffffffffffff163373ffffffffffffffffffffffffffffffffffffffff1614610f6d576040517f08c379a0000000000000000000000000000000000000000000000000000000008152600401610f6490611bd9565b60405180910390fd5b565b3373ffffffffffffffffffffffffffffffffffffffff168173ffffffffffffffffffffffffffffffffffffffff1603610fdd576040517f08c379a0000000000000000000000000000000000000000000000000000000008152600401610fd490611c45565b60405180910390fd5b80600160006101000a81548173ffffffffffffffffffffffffffffffffffffffff021916908373ffffffffffffffffffffffffffffffffffffffff1602179055508073ffffffffffffffffffffffffffffffffffffffff1660008054906101000a900473ffffffffffffffffffffffffffffffffffffffff1673ffffffffffffffffffffffffffffffffffffffff167fed8889f560326eb138920d842192f0eb3dd22b4f139c87a2c57538e05bae127860405160405180910390a350565b828054828255906000526020600020908101928215611114579160200282015b828111156111135782518260006101000a81548173ffffffffffffffffffffffffffffffffffffffff021916908373ffffffffffffffffffffffffffffffffffffffff160217905550916020019190600101906110bb565b5b5090506111219190611125565b5090565b5b8082111561113e576000816000905550600101611126565b5090565b6000819050919050565b61115581611142565b82525050565b6000602082019050611170600083018461114c565b92915050565b7f4e487b7100000000000000000000000000000000000000000000000000000000600052602160045260246000fd5b600281106111b6576111b5611176565b5b50565b60008190506111c7826111a5565b919050565b60006111d7826111b9565b9050919050565b6111e7816111cc565b82525050565b600060208201905061120260008301846111de565b92915050565b6000604051905090565b600080fd5b600080fd5b61122581611142565b811461123057600080fd5b50565b6000813590506112428161121c565b92915050565b600080fd5b600080fd5b600080fd5b60008083601f84011261126d5761126c611248565b5b8235905067ffffffffffffffff81111561128a5761128961124d565b5b6020830191508360208202830111156112a6576112a5611252565b5b9250929050565b6000806000604084860312156112c6576112c5611212565b5b60006112d486828701611233565b935050602084013567ffffffffffffffff8111156112f5576112f4611217565b5b61130186828701611257565b92509250509250925092565b60008083601f84011261132357611322611248565b5b8235905067ffffffffffffffff8111156113405761133f61124d565b5b60208301915083600182028301111561135c5761135b611252565b5b9250929050565b6000806020838503121561137a57611379611212565b5b600083013567ffffffffffffffff81111561139857611397611217565b5b6113a48582860161130d565b92509250509250929050565b600080fd5b6000601f19601f8301169050919050565b7f4e487b7100000000000000000000000000000000000000000000000000000000600052604160045260246000fd5b6113fe826113b5565b810181811067ffffffffffffffff8211171561141d5761141c6113c6565b5b80604052505050565b6000611430611208565b905061143c82826113f5565b919050565b600067ffffffffffffffff82111561145c5761145b6113c6565b5b611465826113b5565b9050602081019050919050565b82818337600083830152505050565b600061149461148f84611441565b611426565b9050828152602081018484840111156114b0576114af6113b0565b5b6114bb848285611472565b509392505050565b600082601f8301126114d8576114d7611248565b5b81356114e8848260208601611481565b91505092915050565b60006020828403121561150757611506611212565b5b600082013567ffffffffffffffff81111561152557611524611217565b5b611531848285016114c3565b91505092915050565b60008115159050919050565b61154f8161153a565b82525050565b600081519050919050565b600082825260208201905092915050565b60005b8381101561158f578082015181840152602081019050611574565b60008484015250505050565b60006115a682611555565b6115b08185611560565b93506115c0818560208601611571565b6115c9816113b5565b840191505092915050565b60006040820190506115e96000830185611546565b81810360208301526115fb818461159b565b90509392505050565b600073ffffffffffffffffffffffffffffffffffffffff82169050919050565b600061162f82611604565b9050919050565b61163f81611624565b82525050565b600060208201905061165a6000830184611636565b92915050565b61166981611624565b811461167457600080fd5b50565b60008135905061168681611660565b92915050565b6000602082840312156116a2576116a1611212565b5b60006116b084828501611677565b91505092915050565b6000819050919050565b60006116de6116d96116d484611604565b6116b9565b611604565b9050919050565b60006116f0826116c3565b9050919050565b6000611702826116e5565b9050919050565b611712816116f7565b82525050565b600060208201905061172d6000830184611709565b92915050565b60006020828403121561174957611748611212565b5b600061175784828501611233565b91505092915050565b60006040820190506117756000830185611636565b6117826020830184611636565b9392505050565b600060608201905061179e600083018661114c565b6117ab602083018561114c565b6117b860408301846111de565b949350505050565b6000819050919050565b6117d3816117c0565b82525050565b6117e281611142565b82525050565b600061ffff82169050919050565b6117ff816117e8565b82525050565b600063ffffffff82169050919050565b61181e81611805565b82525050565b600082825260208201905092915050565b600061184082611555565b61184a8185611824565b935061185a818560208601611571565b611863816113b5565b840191505092915050565b600060c08301600083015161188660008601826117ca565b50602083015161189960208601826117d9565b5060408301516118ac60408601826117f6565b5060608301516118bf6060860182611815565b5060808301516118d26080860182611815565b5060a083015184820360a08601526118ea8282611835565b9150508091505092915050565b60006020820190508181036000830152611911818461186e565b905092915050565b6000815190506119288161121c565b92915050565b60006020828403121561194457611943611212565b5b600061195284828501611919565b91505092915050565b7f4e487b7100000000000000000000000000000000000000000000000000000000600052601160045260246000fd5b600061199582611142565b91506119a083611142565b92508282039050818111156119b8576119b761195b565b5b92915050565b600082825260208201905092915050565b7f4d7573742062652070726f706f736564206f776e657200000000000000000000600082015250565b6000611a056016836119be565b9150611a10826119cf565b602082019050919050565b60006020820190508181036000830152611a34816119f8565b9050919050565b6000606082019050611a506000830186611636565b611a5d6020830185611636565b611a6a6040830184611636565b949350505050565b7f4e487b7100000000000000000000000000000000000000000000000000000000600052603260045260246000fd5b7f4e487b7100000000000000000000000000000000000000000000000000000000600052601260045260246000fd5b6000611adb82611142565b9150611ae683611142565b925082611af657611af5611aa1565b5b828206905092915050565b600081905092915050565b50565b6000611b1c600083611b01565b9150611b2782611b0c565b600082019050919050565b6000611b3d82611b0f565b9150819050919050565b611b508161153a565b82525050565b602082016000820151611b6c6000850182611b47565b50505050565b6000602082019050611b876000830184611b56565b92915050565b7f4f6e6c792063616c6c61626c65206279206f776e657200000000000000000000600082015250565b6000611bc36016836119be565b9150611bce82611b8d565b602082019050919050565b60006020820190508181036000830152611bf281611bb6565b9050919050565b7f43616e6e6f74207472616e7366657220746f2073656c66000000000000000000600082015250565b6000611c2f6017836119be565b9150611c3a82611bf9565b602082019050919050565b60006020820190508181036000830152611c5e81611c22565b905091905056fea264697066735822122036a8e303788a4402eb4bc1aae2a9e869f892d101e9fef409dd223c09a8f772bb64736f6c63430008130033","linkReferences":{}},"methodIdentifiers":{"acceptOwnership()":"79ba5097","checkUpkeep(bytes)":"6e04ff0d","enterRaffle()":"2cfcc539","getEntranceFee()":"09bc33a7","getPlayer(uint256)":"e55ae4e8","getRaffleState()":"115cbaf5","owner()":"8da5cb5b","performUpkeep(bytes)":"4585e33b","rawFulfillRandomWords(uint256,uint256[])":"1fe543e3","s_vrfCoordinator()":"9eccacf6","setCoordinator(address)":"8ea98117","transferOwnership(address)":"f2fde38b"},"id":36}