{"abi":[{"type":"constructor","inputs":[{"name":"entranceFee","type":"uint256","internalType":"uint256"},{"name":"interval","type":"uint256","internalType":"uint256"},{"name":"vrfCoordinator","type":"address","internalType":"address"},{"name":"gasLane","type":"bytes32","internalType":"bytes32"},{"name":"subscriptionId","type":"uint256","internalType":"uint256"},{"name":"callbackGasLimit","type":"uint32","internalType":"uint32"}],"stateMutability":"nonpayable"},{"type":"function","name":"acceptOwnership","inputs":[],"outputs":[],"stateMutability":"nonpayable"},{"type":"function","name":"checkUpkeep","inputs":[{"name":"","type":"bytes","internalType":"bytes"}],"outputs":[{"name":"upkeepNeeded","type":"bool","internalType":"bool"},{"name":"","type":"bytes","internalType":"bytes"}],"stateMutability":"view"},{"type":"function","name":"enterRaffle","inputs":[],"outputs":[],"stateMutability":"payable"},{"type":"function","name":"getEntranceFee","inputs":[],"outputs":[{"name":"","type":"uint256","internalType":"uint256"}],"stateMutability":"view"},{"type":"function","name":"owner","inputs":[],"outputs":[{"name":"","type":"address","internalType":"address"}],"stateMutability":"view"},{"type":"function","name":"performUpkeep","inputs":[{"name":"","type":"bytes","internalType":"bytes"}],"outputs":[],"stateMutability":"nonpayable"},{"type":"function","name":"rawFulfillRandomWords","inputs":[{"name":"requestId","type":"uint256","internalType":"uint256"},{"name":"randomWords","type":"uint256[]","internalType":"uint256[]"}],"outputs":[],"stateMutability":"nonpayable"},{"type":"function","name":"s_vrfCoordinator","inputs":[],"outputs":[{"name":"","type":"address","internalType":"contract IVRFCoordinatorV2Plus"}],"stateMutability":"view"},{"type":"function","name":"setCoordinator","inputs":[{"name":"_vrfCoordinator","type":"address","internalType":"address"}],"outputs":[],"stateMutability":"nonpayable"},{"type":"function","name":"transferOwnership","inputs":[{"name":"to","type":"address","internalType":"address"}],"outputs":[],"stateMutability":"nonpayable"},{"type":"event","name":"CoordinatorSet","inputs":[{"name":"vrfCoordinator","type":"address","indexed":false,"internalType":"address"}],"anonymous":false},{"type":"event","name":"OwnershipTransferRequested","inputs":[{"name":"from","type":"address","indexed":true,"internalType":"address"},{"name":"to","type":"address","indexed":true,"internalType":"address"}],"anonymous":false},{"type":"event","name":"OwnershipTransferred","inputs":[{"name":"from","type":"address","indexed":true,"internalType":"address"},{"name":"to","type":"address","indexed":true,"internalType":"address"}],"anonymous":false},{"type":"event","name":"RaffleEntered","inputs":[{"name":"player","type":"address","indexed":true,"internalType":"address"}],"anonymous":false},{"type":"event","name":"WinnerPicked","inputs":[{"name":"winner","type":"address","indexed":true,"internalType":"address"}],"anonymous":false},{"type":"error","name":"OnlyCoordinatorCanFulfill","inputs":[{"name":"have","type":"address","internalType":"address"},{"name":"want","type":"address","internalType":"address"}]},{"type":"error","name":"OnlyOwnerOrCoordinator","inputs":[{"name":"have","type":"address","internalType":"address"},{"name":"owner","type":"address","internalType":"address"},{"name":"coordinator","type":"address","internalType":"address"}]},{"type":"error","name":"Raffle__RaffleNotOpen","inputs":[]},{"type":"error","name":"Raffle__SendMoreToEnterRaffle","inputs":[]},{"type":"error","name":"Raffle__UpkeepNotNeeded","inputs":[{"name":"balance","type":"uint256","internalType":"uint256"},{"name":"payersLength","type":"uint256","internalType":"uint256"},{"name":"raffleState","type":"uint8","internalType":"enum Raffle.RaffleState"}]},{"type":"error","name":"Raffle__transferFailed","inputs":[]},{"type":"error","name":"ZeroAddress","inputs":[]}],"bytecode":{"object":"0x610120604052348015610010575f5ffd5b506040516120f53803806120f583398181016040528101906100329190610468565b8333805f5f73ffffffffffffffffffffffffffffffffffffffff168273ffffffffffffffffffffffffffffffffffffffff16036100a4576040517f08c379a000000000000000000000000000000000000000000000000000000000815260040161009b9061054b565b60405180910390fd5b815f5f6101000a81548173ffffffffffffffffffffffffffffffffffffffff021916908373ffffffffffffffffffffffffffffffffffffffff1602179055505f73ffffffffffffffffffffffffffffffffffffffff168173ffffffffffffffffffffffffffffffffffffffff1614610126576101258161024060201b60201c565b5b5050505f73ffffffffffffffffffffffffffffffffffffffff168173ffffffffffffffffffffffffffffffffffffffff160361018e576040517fd92e233d00000000000000000000000000000000000000000000000000000000815260040160405180910390fd5b8060025f6101000a81548173ffffffffffffffffffffffffffffffffffffffff021916908373ffffffffffffffffffffffffffffffffffffffff1602179055505085608081815250508460a081815250508260c081815250508160e081815250508063ffffffff166101008163ffffffff1681525050426004819055505f600560146101000a81548160ff021916908360018111156102305761022f610569565b5b02179055505050505050506105fe565b3373ffffffffffffffffffffffffffffffffffffffff168173ffffffffffffffffffffffffffffffffffffffff16036102ae576040517f08c379a00000000000000000000000000000000000000000000000000000000081526004016102a5906105e0565b60405180910390fd5b8060015f6101000a81548173ffffffffffffffffffffffffffffffffffffffff021916908373ffffffffffffffffffffffffffffffffffffffff1602179055508073ffffffffffffffffffffffffffffffffffffffff165f5f9054906101000a900473ffffffffffffffffffffffffffffffffffffffff1673ffffffffffffffffffffffffffffffffffffffff167fed8889f560326eb138920d842192f0eb3dd22b4f139c87a2c57538e05bae127860405160405180910390a350565b5f5ffd5b5f819050919050565b6103818161036f565b811461038b575f5ffd5b50565b5f8151905061039c81610378565b92915050565b5f73ffffffffffffffffffffffffffffffffffffffff82169050919050565b5f6103cb826103a2565b9050919050565b6103db816103c1565b81146103e5575f5ffd5b50565b5f815190506103f6816103d2565b92915050565b5f819050919050565b61040e816103fc565b8114610418575f5ffd5b50565b5f8151905061042981610405565b92915050565b5f63ffffffff82169050919050565b6104478161042f565b8114610451575f5ffd5b50565b5f815190506104628161043e565b92915050565b5f5f5f5f5f5f60c087890312156104825761048161036b565b5b5f61048f89828a0161038e565b96505060206104a089828a0161038e565b95505060406104b189828a016103e8565b94505060606104c289828a0161041b565b93505060806104d389828a0161038e565b92505060a06104e489828a01610454565b9150509295509295509295565b5f82825260208201905092915050565b7f43616e6e6f7420736574206f776e657220746f207a65726f00000000000000005f82015250565b5f6105356018836104f1565b915061054082610501565b602082019050919050565b5f6020820190508181035f83015261056281610529565b9050919050565b7f4e487b71000000000000000000000000000000000000000000000000000000005f52602160045260245ffd5b7f43616e6e6f74207472616e7366657220746f2073656c660000000000000000005f82015250565b5f6105ca6017836104f1565b91506105d582610596565b602082019050919050565b5f6020820190508181035f8301526105f7816105be565b9050919050565b60805160a05160c05160e05161010051611ab36106425f395f61056a01525f61053901525f61051301525f61066601525f818161021201526102fc0152611ab35ff3fe608060405260043610610090575f3560e01c806379ba50971161005857806379ba5097146101555780638da5cb5b1461016b5780638ea98117146101955780639eccacf6146101bd578063f2fde38b146101e757610090565b806309bc33a7146100945780631fe543e3146100be5780632cfcc539146100e65780634585e33b146100f05780636e04ff0d14610118575b5f5ffd5b34801561009f575f5ffd5b506100a861020f565b6040516100b5919061103c565b60405180910390f35b3480156100c9575f5ffd5b506100e460048036038101906100df91906110f1565b610236565b005b6100ee6102fa565b005b3480156100fb575f5ffd5b50610116600480360381019061011191906111a3565b610465565b005b348015610123575f5ffd5b5061013e60048036038101906101399190611326565b610660565b60405161014c9291906113e7565b60405180910390f35b348015610160575f5ffd5b5061016961071c565b005b348015610176575f5ffd5b5061017f6108ab565b60405161018c9190611454565b60405180910390f35b3480156101a0575f5ffd5b506101bb60048036038101906101b69190611497565b6108d2565b005b3480156101c8575f5ffd5b506101d1610aaf565b6040516101de919061151d565b60405180910390f35b3480156101f2575f5ffd5b5061020d60048036038101906102089190611497565b610ad4565b005b5f7f0000000000000000000000000000000000000000000000000000000000000000905090565b60025f9054906101000a900473ffffffffffffffffffffffffffffffffffffffff1673ffffffffffffffffffffffffffffffffffffffff163373ffffffffffffffffffffffffffffffffffffffff16146102ea573360025f9054906101000a900473ffffffffffffffffffffffffffffffffffffffff166040517f1cf993f40000000000000000000000000000000000000000000000000000000081526004016102e1929190611536565b60405180910390fd5b6102f5838383610ae8565b505050565b7f0000000000000000000000000000000000000000000000000000000000000000341015610354576040517f3038c00a00000000000000000000000000000000000000000000000000000000815260040160405180910390fd5b5f60018111156103675761036661155d565b5b600560149054906101000a900460ff1660018111156103895761038861155d565b5b146103c0576040517fd24a271400000000000000000000000000000000000000000000000000000000815260040160405180910390fd5b600333908060018154018082558091505060019003905f5260205f20015f9091909190916101000a81548173ffffffffffffffffffffffffffffffffffffffff021916908373ffffffffffffffffffffffffffffffffffffffff1602179055503373ffffffffffffffffffffffffffffffffffffffff167f634f3211e3a4e43fee5a21ad9f87ca153b300fc78b1c557a2057dbe9c63bcb4760405160405180910390a2565b5f61047d60405180602001604052805f815250610660565b509050806104da5747600380549050600560149054906101000a900460ff166040517fab3439a70000000000000000000000000000000000000000000000000000000081526004016104d1939291906115d0565b60405180910390fd5b6001600560146101000a81548160ff02191690836001811115610500576104ff61155d565b5b02179055505f6040518060c001604052807f000000000000000000000000000000000000000000000000000000000000000081526020017f00000000000000000000000000000000000000000000000000000000000000008152602001600361ffff1681526020017f000000000000000000000000000000000000000000000000000000000000000063ffffffff168152602001600163ffffffff1681526020016105ba60405180602001604052805f1515815250610d2f565b815250905060025f9054906101000a900473ffffffffffffffffffffffffffffffffffffffff1673ffffffffffffffffffffffffffffffffffffffff16639b1c385e826040518263ffffffff1660e01b81526004016106199190611734565b6020604051808303815f875af1158015610635573d5f5f3e3d5ffd5b505050506040513d601f19601f820116820180604052508101906106599190611768565b5050505050565b5f60605f7f00000000000000000000000000000000000000000000000000000000000000006004544261069391906117c0565b101590505f5f60018111156106ab576106aa61155d565b5b600560149054906101000a900460ff1660018111156106cd576106cc61155d565b5b1490505f5f471190505f5f6003805490501190508380156106eb5750825b80156106f45750815b80156106fd5750805b95508560405180602001604052805f8152509550955050505050915091565b60015f9054906101000a900473ffffffffffffffffffffffffffffffffffffffff1673ffffffffffffffffffffffffffffffffffffffff163373ffffffffffffffffffffffffffffffffffffffff16146107ab576040517f08c379a00000000000000000000000000000000000000000000000000000000081526004016107a29061184d565b60405180910390fd5b5f5f5f9054906101000a900473ffffffffffffffffffffffffffffffffffffffff169050335f5f6101000a81548173ffffffffffffffffffffffffffffffffffffffff021916908373ffffffffffffffffffffffffffffffffffffffff1602179055505f60015f6101000a81548173ffffffffffffffffffffffffffffffffffffffff021916908373ffffffffffffffffffffffffffffffffffffffff1602179055503373ffffffffffffffffffffffffffffffffffffffff168173ffffffffffffffffffffffffffffffffffffffff167f8be0079c531659141344cd1fd0a4f28419497f9722a3daafe3b4186f6b6457e060405160405180910390a350565b5f5f5f9054906101000a900473ffffffffffffffffffffffffffffffffffffffff16905090565b6108da6108ab565b73ffffffffffffffffffffffffffffffffffffffff163373ffffffffffffffffffffffffffffffffffffffff1614158015610962575060025f9054906101000a900473ffffffffffffffffffffffffffffffffffffffff1673ffffffffffffffffffffffffffffffffffffffff163373ffffffffffffffffffffffffffffffffffffffff1614155b156109d057336109706108ab565b60025f9054906101000a900473ffffffffffffffffffffffffffffffffffffffff166040517f061db9c10000000000000000000000000000000000000000000000000000000081526004016109c79392919061186b565b60405180910390fd5b5f73ffffffffffffffffffffffffffffffffffffffff168173ffffffffffffffffffffffffffffffffffffffff1603610a35576040517fd92e233d00000000000000000000000000000000000000000000000000000000815260040160405180910390fd5b8060025f6101000a81548173ffffffffffffffffffffffffffffffffffffffff021916908373ffffffffffffffffffffffffffffffffffffffff1602179055507fd1a6a14209a385a964d036e404cb5cfb71f4000cdb03c9366292430787261be681604051610aa49190611454565b60405180910390a150565b60025f9054906101000a900473ffffffffffffffffffffffffffffffffffffffff1681565b610adc610dc7565b610ae581610e57565b50565b5f60038054905083835f818110610b0257610b016118a0565b5b90506020020135610b1391906118fa565b90505f60038281548110610b2a57610b296118a0565b5b905f5260205f20015f9054906101000a900473ffffffffffffffffffffffffffffffffffffffff1690508060055f6101000a81548173ffffffffffffffffffffffffffffffffffffffff021916908373ffffffffffffffffffffffffffffffffffffffff1602179055505f600560146101000a81548160ff02191690836001811115610bb957610bb861155d565b5b02179055505f67ffffffffffffffff811115610bd857610bd7611202565b5b604051908082528060200260200182016040528015610c065781602001602082028036833780820191505090505b5060039080519060200190610c1c929190610f82565b504260048190555060055f9054906101000a900473ffffffffffffffffffffffffffffffffffffffff1673ffffffffffffffffffffffffffffffffffffffff167f5b690ec4a06fe979403046eaeea5b3ce38524683c3001f662c8b5a829632f7df60405160405180910390a25f8173ffffffffffffffffffffffffffffffffffffffff1647604051610cad90611957565b5f6040518083038185875af1925050503d805f8114610ce7576040519150601f19603f3d011682016040523d82523d5f602084013e610cec565b606091505b5050905080610d27576040517f9594d81300000000000000000000000000000000000000000000000000000000815260040160405180910390fd5b505050505050565b60607f92fd13387c7fe7befbc38d303d6468778fb9731bc4583f17d92989c6fcfdeaaa82604051602401610d639190611994565b604051602081830303815290604052907bffffffffffffffffffffffffffffffffffffffffffffffffffffffff19166020820180517bffffffffffffffffffffffffffffffffffffffffffffffffffffffff83818316178352505050509050919050565b5f5f9054906101000a900473ffffffffffffffffffffffffffffffffffffffff1673ffffffffffffffffffffffffffffffffffffffff163373ffffffffffffffffffffffffffffffffffffffff1614610e55576040517f08c379a0000000000000000000000000000000000000000000000000000000008152600401610e4c906119f7565b60405180910390fd5b565b3373ffffffffffffffffffffffffffffffffffffffff168173ffffffffffffffffffffffffffffffffffffffff1603610ec5576040517f08c379a0000000000000000000000000000000000000000000000000000000008152600401610ebc90611a5f565b60405180910390fd5b8060015f6101000a81548173ffffffffffffffffffffffffffffffffffffffff021916908373ffffffffffffffffffffffffffffffffffffffff1602179055508073ffffffffffffffffffffffffffffffffffffffff165f5f9054906101000a900473ffffffffffffffffffffffffffffffffffffffff1673ffffffffffffffffffffffffffffffffffffffff167fed8889f560326eb138920d842192f0eb3dd22b4f139c87a2c57538e05bae127860405160405180910390a350565b828054828255905f5260205f20908101928215610ff8579160200282015b82811115610ff7578251825f6101000a81548173ffffffffffffffffffffffffffffffffffffffff021916908373ffffffffffffffffffffffffffffffffffffffff16021790555091602001919060010190610fa0565b5b5090506110059190611009565b5090565b5b80821115611020575f815f90555060010161100a565b5090565b5f819050919050565b61103681611024565b82525050565b5f60208201905061104f5f83018461102d565b92915050565b5f604051905090565b5f5ffd5b5f5ffd5b61106f81611024565b8114611079575f5ffd5b50565b5f8135905061108a81611066565b92915050565b5f5ffd5b5f5ffd5b5f5ffd5b5f5f83601f8401126110b1576110b0611090565b5b8235905067ffffffffffffffff8111156110ce576110cd611094565b5b6020830191508360208202830111156110ea576110e9611098565b5b9250929050565b5f5f5f604084860312156111085761110761105e565b5b5f6111158682870161107c565b935050602084013567ffffffffffffffff81111561113657611135611062565b5b6111428682870161109c565b92509250509250925092565b5f5f83601f84011261116357611162611090565b5b8235905067ffffffffffffffff8111156111805761117f611094565b5b60208301915083600182028301111561119c5761119b611098565b5b9250929050565b5f5f602083850312156111b9576111b861105e565b5b5f83013567ffffffffffffffff8111156111d6576111d5611062565b5b6111e28582860161114e565b92509250509250929050565b5f5ffd5b5f601f19601f8301169050919050565b7f4e487b71000000000000000000000000000000000000000000000000000000005f52604160045260245ffd5b611238826111f2565b810181811067ffffffffffffffff8211171561125757611256611202565b5b80604052505050565b5f611269611055565b9050611275828261122f565b919050565b5f67ffffffffffffffff82111561129457611293611202565b5b61129d826111f2565b9050602081019050919050565b828183375f83830152505050565b5f6112ca6112c58461127a565b611260565b9050828152602081018484840111156112e6576112e56111ee565b5b6112f18482856112aa565b509392505050565b5f82601f83011261130d5761130c611090565b5b813561131d8482602086016112b8565b91505092915050565b5f6020828403121561133b5761133a61105e565b5b5f82013567ffffffffffffffff81111561135857611357611062565b5b611364848285016112f9565b91505092915050565b5f8115159050919050565b6113818161136d565b82525050565b5f81519050919050565b5f82825260208201905092915050565b8281835e5f83830152505050565b5f6113b982611387565b6113c38185611391565b93506113d38185602086016113a1565b6113dc816111f2565b840191505092915050565b5f6040820190506113fa5f830185611378565b818103602083015261140c81846113af565b90509392505050565b5f73ffffffffffffffffffffffffffffffffffffffff82169050919050565b5f61143e82611415565b9050919050565b61144e81611434565b82525050565b5f6020820190506114675f830184611445565b92915050565b61147681611434565b8114611480575f5ffd5b50565b5f813590506114918161146d565b92915050565b5f602082840312156114ac576114ab61105e565b5b5f6114b984828501611483565b91505092915050565b5f819050919050565b5f6114e56114e06114db84611415565b6114c2565b611415565b9050919050565b5f6114f6826114cb565b9050919050565b5f611507826114ec565b9050919050565b611517816114fd565b82525050565b5f6020820190506115305f83018461150e565b92915050565b5f6040820190506115495f830185611445565b6115566020830184611445565b9392505050565b7f4e487b71000000000000000000000000000000000000000000000000000000005f52602160045260245ffd5b6002811061159b5761159a61155d565b5b50565b5f8190506115ab8261158a565b919050565b5f6115ba8261159e565b9050919050565b6115ca816115b0565b82525050565b5f6060820190506115e35f83018661102d565b6115f0602083018561102d565b6115fd60408301846115c1565b949350505050565b5f819050919050565b61161781611605565b82525050565b61162681611024565b82525050565b5f61ffff82169050919050565b6116428161162c565b82525050565b5f63ffffffff82169050919050565b61166081611648565b82525050565b5f82825260208201905092915050565b5f61168082611387565b61168a8185611666565b935061169a8185602086016113a1565b6116a3816111f2565b840191505092915050565b5f60c083015f8301516116c35f86018261160e565b5060208301516116d6602086018261161d565b5060408301516116e96040860182611639565b5060608301516116fc6060860182611657565b50608083015161170f6080860182611657565b5060a083015184820360a08601526117278282611676565b9150508091505092915050565b5f6020820190508181035f83015261174c81846116ae565b905092915050565b5f8151905061176281611066565b92915050565b5f6020828403121561177d5761177c61105e565b5b5f61178a84828501611754565b91505092915050565b7f4e487b71000000000000000000000000000000000000000000000000000000005f52601160045260245ffd5b5f6117ca82611024565b91506117d583611024565b92508282039050818111156117ed576117ec611793565b5b92915050565b5f82825260208201905092915050565b7f4d7573742062652070726f706f736564206f776e6572000000000000000000005f82015250565b5f6118376016836117f3565b915061184282611803565b602082019050919050565b5f6020820190508181035f8301526118648161182b565b9050919050565b5f60608201905061187e5f830186611445565b61188b6020830185611445565b6118986040830184611445565b949350505050565b7f4e487b71000000000000000000000000000000000000000000000000000000005f52603260045260245ffd5b7f4e487b71000000000000000000000000000000000000000000000000000000005f52601260045260245ffd5b5f61190482611024565b915061190f83611024565b92508261191f5761191e6118cd565b5b828206905092915050565b5f81905092915050565b50565b5f6119425f8361192a565b915061194d82611934565b5f82019050919050565b5f61196182611937565b9150819050919050565b6119748161136d565b82525050565b602082015f82015161198e5f85018261196b565b50505050565b5f6020820190506119a75f83018461197a565b92915050565b7f4f6e6c792063616c6c61626c65206279206f776e6572000000000000000000005f82015250565b5f6119e16016836117f3565b91506119ec826119ad565b602082019050919050565b5f6020820190508181035f830152611a0e816119d5565b9050919050565b7f43616e6e6f74207472616e7366657220746f2073656c660000000000000000005f82015250565b5f611a496017836117f3565b9150611a5482611a15565b602082019050919050565b5f6020820190508181035f830152611a7681611a3d565b905091905056fea2646970667358221220160d09c210edeff16c9dbe0e8471b682d66cc1ad3ecd71115fb6dea331bd626264736f6c634300081c0033","linkReferences":{}},"methodIdentifiers":{"acceptOwnership()":"79ba5097","checkUpkeep(bytes)":"6e04ff0d","enterRaffle()":"2cfcc539","getEntranceFee()":"09bc33a7","owner()":"8da5cb5b","performUpkeep(bytes)":"4585e33b","rawFulfillRandomWords(uint256,uint256[])":"1fe543e3","s_vrfCoordinator()":"9eccacf6","setCoordinator(address)":"8ea98117","transferOwnership(address)":"f2fde38b"},"id":8}