{"abi":[{"type":"constructor","inputs":[{"name":"entranceFee","type":"uint256","internalType":"uint256"},{"name":"interval","type":"uint256","internalType":"uint256"},{"name":"vrfCoordinator","type":"address","internalType":"address"},{"name":"gasLane","type":"bytes32","internalType":"bytes32"},{"name":"subscriptionId","type":"uint256","internalType":"uint256"},{"name":"callbackGasLimit","type":"uint32","internalType":"uint32"}],"stateMutability":"nonpayable"},{"type":"function","name":"acceptOwnership","inputs":[],"outputs":[],"stateMutability":"nonpayable"},{"type":"function","name":"checkUpkeep","inputs":[{"name":"","type":"bytes","internalType":"bytes"}],"outputs":[{"name":"upkeepNeeded","type":"bool","internalType":"bool"},{"name":"","type":"bytes","internalType":"bytes"}],"stateMutability":"view"},{"type":"function","name":"enterRaffle","inputs":[],"outputs":[],"stateMutability":"payable"},{"type":"function","name":"getEntranceFee","inputs":[],"outputs":[{"name":"","type":"uint256","internalType":"uint256"}],"stateMutability":"view"},{"type":"function","name":"owner","inputs":[],"outputs":[{"name":"","type":"address","internalType":"address"}],"stateMutability":"view"},{"type":"function","name":"performUpkeep","inputs":[{"name":"","type":"bytes","internalType":"bytes"}],"outputs":[],"stateMutability":"nonpayable"},{"type":"function","name":"rawFulfillRandomWords","inputs":[{"name":"requestId","type":"uint256","internalType":"uint256"},{"name":"randomWords","type":"uint256[]","internalType":"uint256[]"}],"outputs":[],"stateMutability":"nonpayable"},{"type":"function","name":"s_vrfCoordinator","inputs":[],"outputs":[{"name":"","type":"address","internalType":"contract IVRFCoordinatorV2Plus"}],"stateMutability":"view"},{"type":"function","name":"setCoordinator","inputs":[{"name":"_vrfCoordinator","type":"address","internalType":"address"}],"outputs":[],"stateMutability":"nonpayable"},{"type":"function","name":"transferOwnership","inputs":[{"name":"to","type":"address","internalType":"address"}],"outputs":[],"stateMutability":"nonpayable"},{"type":"event","name":"CoordinatorSet","inputs":[{"name":"vrfCoordinator","type":"address","indexed":false,"internalType":"address"}],"anonymous":false},{"type":"event","name":"OwnershipTransferRequested","inputs":[{"name":"from","type":"address","indexed":true,"internalType":"address"},{"name":"to","type":"address","indexed":true,"internalType":"address"}],"anonymous":false},{"type":"event","name":"OwnershipTransferred","inputs":[{"name":"from","type":"address","indexed":true,"internalType":"address"},{"name":"to","type":"address","indexed":true,"internalType":"address"}],"anonymous":false},{"type":"event","name":"RaffleEntered","inputs":[{"name":"player","type":"address","indexed":true,"internalType":"address"}],"anonymous":false},{"type":"event","name":"WinnerPicked","inputs":[{"name":"winner","type":"address","indexed":true,"internalType":"address"}],"anonymous":false},{"type":"error","name":"OnlyCoordinatorCanFulfill","inputs":[{"name":"have","type":"address","internalType":"address"},{"name":"want","type":"address","internalType":"address"}]},{"type":"error","name":"OnlyOwnerOrCoordinator","inputs":[{"name":"have","type":"address","internalType":"address"},{"name":"owner","type":"address","internalType":"address"},{"name":"coordinator","type":"address","internalType":"address"}]},{"type":"error","name":"Raffle__RaffleNotOpen","inputs":[]},{"type":"error","name":"Raffle__SendMoreToEnterRaffle","inputs":[]},{"type":"error","name":"Raffle__UpkeepNotNeeded","inputs":[{"name":"balance","type":"uint256","internalType":"uint256"},{"name":"payersLength","type":"uint256","internalType":"uint256"},{"name":"raffleState","type":"uint8","internalType":"enum Raffle.RaffleState"}]},{"type":"error","name":"Raffle__transferFailed","inputs":[]},{"type":"error","name":"ZeroAddress","inputs":[]}],"bytecode":{"object":"0x6101206040523480156200001257600080fd5b5060405162002229380380620022298339818101604052810190620000389190620004a7565b83338060008073ffffffffffffffffffffffffffffffffffffffff168273ffffffffffffffffffffffffffffffffffffffff1603620000ae576040517f08c379a0000000000000000000000000000000000000000000000000000000008152600401620000a590620005a4565b60405180910390fd5b816000806101000a81548173ffffffffffffffffffffffffffffffffffffffff021916908373ffffffffffffffffffffffffffffffffffffffff160217905550600073ffffffffffffffffffffffffffffffffffffffff168173ffffffffffffffffffffffffffffffffffffffff1614620001355762000134816200025760201b60201c565b5b505050600073ffffffffffffffffffffffffffffffffffffffff168173ffffffffffffffffffffffffffffffffffffffff16036200019f576040517fd92e233d00000000000000000000000000000000000000000000000000000000815260040160405180910390fd5b80600260006101000a81548173ffffffffffffffffffffffffffffffffffffffff021916908373ffffffffffffffffffffffffffffffffffffffff1602179055505085608081815250508460a081815250508260c081815250508160e081815250508063ffffffff166101008163ffffffff1681525050426004819055506000600560146101000a81548160ff02191690836001811115620002465762000245620005c6565b5b021790555050505050505062000667565b3373ffffffffffffffffffffffffffffffffffffffff168173ffffffffffffffffffffffffffffffffffffffff1603620002c8576040517f08c379a0000000000000000000000000000000000000000000000000000000008152600401620002bf9062000645565b60405180910390fd5b80600160006101000a81548173ffffffffffffffffffffffffffffffffffffffff021916908373ffffffffffffffffffffffffffffffffffffffff1602179055508073ffffffffffffffffffffffffffffffffffffffff1660008054906101000a900473ffffffffffffffffffffffffffffffffffffffff1673ffffffffffffffffffffffffffffffffffffffff167fed8889f560326eb138920d842192f0eb3dd22b4f139c87a2c57538e05bae127860405160405180910390a350565b600080fd5b6000819050919050565b620003a0816200038b565b8114620003ac57600080fd5b50565b600081519050620003c08162000395565b92915050565b600073ffffffffffffffffffffffffffffffffffffffff82169050919050565b6000620003f382620003c6565b9050919050565b6200040581620003e6565b81146200041157600080fd5b50565b6000815190506200042581620003fa565b92915050565b6000819050919050565b62000440816200042b565b81146200044c57600080fd5b50565b600081519050620004608162000435565b92915050565b600063ffffffff82169050919050565b620004818162000466565b81146200048d57600080fd5b50565b600081519050620004a18162000476565b92915050565b60008060008060008060c08789031215620004c757620004c662000386565b5b6000620004d789828a01620003af565b9650506020620004ea89828a01620003af565b9550506040620004fd89828a0162000414565b94505060606200051089828a016200044f565b93505060806200052389828a01620003af565b92505060a06200053689828a0162000490565b9150509295509295509295565b600082825260208201905092915050565b7f43616e6e6f7420736574206f776e657220746f207a65726f0000000000000000600082015250565b60006200058c60188362000543565b9150620005998262000554565b602082019050919050565b60006020820190508181036000830152620005bf816200057d565b9050919050565b7f4e487b7100000000000000000000000000000000000000000000000000000000600052602160045260246000fd5b7f43616e6e6f74207472616e7366657220746f2073656c66000000000000000000600082015250565b60006200062d60178362000543565b91506200063a82620005f5565b602082019050919050565b6000602082019050818103600083015262000660816200061e565b9050919050565b60805160a05160c05160e05161010051611b76620006b3600039600061057f0152600061054e015260006105280152600061068201526000818161021e015261030a0152611b766000f3fe6080604052600436106100915760003560e01c806379ba50971161005957806379ba50971461015b5780638da5cb5b146101725780638ea981171461019d5780639eccacf6146101c6578063f2fde38b146101f157610091565b806309bc33a7146100965780631fe543e3146100c15780632cfcc539146100ea5780634585e33b146100f45780636e04ff0d1461011d575b600080fd5b3480156100a257600080fd5b506100ab61021a565b6040516100b8919061107e565b60405180910390f35b3480156100cd57600080fd5b506100e860048036038101906100e3919061113e565b610242565b005b6100f2610308565b005b34801561010057600080fd5b5061011b600480360381019061011691906111f4565b610477565b005b34801561012957600080fd5b50610144600480360381019061013f9190611382565b61067a565b604051610152929190611465565b60405180910390f35b34801561016757600080fd5b5061017061073c565b005b34801561017e57600080fd5b506101876108d1565b60405161019491906114d6565b60405180910390f35b3480156101a957600080fd5b506101c460048036038101906101bf919061151d565b6108fa565b005b3480156101d257600080fd5b506101db610adb565b6040516101e891906115a9565b60405180910390f35b3480156101fd57600080fd5b506102186004803603810190610213919061151d565b610b01565b005b60007f0000000000000000000000000000000000000000000000000000000000000000905090565b600260009054906101000a900473ffffffffffffffffffffffffffffffffffffffff1673ffffffffffffffffffffffffffffffffffffffff163373ffffffffffffffffffffffffffffffffffffffff16146102f85733600260009054906101000a900473ffffffffffffffffffffffffffffffffffffffff166040517f1cf993f40000000000000000000000000000000000000000000000000000000081526004016102ef9291906115c4565b60405180910390fd5b610303838383610b15565b505050565b7f0000000000000000000000000000000000000000000000000000000000000000341015610362576040517f3038c00a00000000000000000000000000000000000000000000000000000000815260040160405180910390fd5b60006001811115610376576103756115ed565b5b600560149054906101000a900460ff166001811115610398576103976115ed565b5b146103cf576040517fd24a271400000000000000000000000000000000000000000000000000000000815260040160405180910390fd5b6003339080600181540180825580915050600190039060005260206000200160009091909190916101000a81548173ffffffffffffffffffffffffffffffffffffffff021916908373ffffffffffffffffffffffffffffffffffffffff1602179055503373ffffffffffffffffffffffffffffffffffffffff167f634f3211e3a4e43fee5a21ad9f87ca153b300fc78b1c557a2057dbe9c63bcb4760405160405180910390a2565b60006104916040518060200160405280600081525061067a565b509050806104ee5747600380549050600560149054906101000a900460ff166040517fab3439a70000000000000000000000000000000000000000000000000000000081526004016104e593929190611664565b60405180910390fd5b6001600560146101000a81548160ff02191690836001811115610514576105136115ed565b5b021790555060006040518060c001604052807f000000000000000000000000000000000000000000000000000000000000000081526020017f00000000000000000000000000000000000000000000000000000000000000008152602001600361ffff1681526020017f000000000000000000000000000000000000000000000000000000000000000063ffffffff168152602001600163ffffffff1681526020016105d0604051806020016040528060001515815250610d6a565b8152509050600260009054906101000a900473ffffffffffffffffffffffffffffffffffffffff1673ffffffffffffffffffffffffffffffffffffffff16639b1c385e826040518263ffffffff1660e01b815260040161063091906117d2565b6020604051808303816000875af115801561064f573d6000803e3d6000fd5b505050506040513d601f19601f820116820180604052508101906106739190611809565b5050505050565b6000606060007f0000000000000000000000000000000000000000000000000000000000000000600454426106af9190611865565b1015905060008060018111156106c8576106c76115ed565b5b600560149054906101000a900460ff1660018111156106ea576106e96115ed565b5b1490506000804711905060008060038054905011905083801561070a5750825b80156107135750815b801561071c5750805b955085604051806020016040528060008152509550955050505050915091565b600160009054906101000a900473ffffffffffffffffffffffffffffffffffffffff1673ffffffffffffffffffffffffffffffffffffffff163373ffffffffffffffffffffffffffffffffffffffff16146107cc576040517f08c379a00000000000000000000000000000000000000000000000000000000081526004016107c3906118f6565b60405180910390fd5b60008060009054906101000a900473ffffffffffffffffffffffffffffffffffffffff169050336000806101000a81548173ffffffffffffffffffffffffffffffffffffffff021916908373ffffffffffffffffffffffffffffffffffffffff1602179055506000600160006101000a81548173ffffffffffffffffffffffffffffffffffffffff021916908373ffffffffffffffffffffffffffffffffffffffff1602179055503373ffffffffffffffffffffffffffffffffffffffff168173ffffffffffffffffffffffffffffffffffffffff167f8be0079c531659141344cd1fd0a4f28419497f9722a3daafe3b4186f6b6457e060405160405180910390a350565b60008060009054906101000a900473ffffffffffffffffffffffffffffffffffffffff16905090565b6109026108d1565b73ffffffffffffffffffffffffffffffffffffffff163373ffffffffffffffffffffffffffffffffffffffff161415801561098b5750600260009054906101000a900473ffffffffffffffffffffffffffffffffffffffff1673ffffffffffffffffffffffffffffffffffffffff163373ffffffffffffffffffffffffffffffffffffffff1614155b156109fa57336109996108d1565b600260009054906101000a900473ffffffffffffffffffffffffffffffffffffffff166040517f061db9c10000000000000000000000000000000000000000000000000000000081526004016109f193929190611916565b60405180910390fd5b600073ffffffffffffffffffffffffffffffffffffffff168173ffffffffffffffffffffffffffffffffffffffff1603610a60576040517fd92e233d00000000000000000000000000000000000000000000000000000000815260040160405180910390fd5b80600260006101000a81548173ffffffffffffffffffffffffffffffffffffffff021916908373ffffffffffffffffffffffffffffffffffffffff1602179055507fd1a6a14209a385a964d036e404cb5cfb71f4000cdb03c9366292430787261be681604051610ad091906114d6565b60405180910390a150565b600260009054906101000a900473ffffffffffffffffffffffffffffffffffffffff1681565b610b09610e02565b610b1281610e92565b50565b600060038054905083836000818110610b3157610b3061194d565b5b90506020020135610b4291906119ab565b9050600060038281548110610b5a57610b5961194d565b5b9060005260206000200160009054906101000a900473ffffffffffffffffffffffffffffffffffffffff16905080600560006101000a81548173ffffffffffffffffffffffffffffffffffffffff021916908373ffffffffffffffffffffffffffffffffffffffff1602179055506000600560146101000a81548160ff02191690836001811115610bee57610bed6115ed565b5b0217905550600067ffffffffffffffff811115610c0e57610c0d611257565b5b604051908082528060200260200182016040528015610c3c5781602001602082028036833780820191505090505b5060039080519060200190610c52929190610fbe565b5042600481905550600560009054906101000a900473ffffffffffffffffffffffffffffffffffffffff1673ffffffffffffffffffffffffffffffffffffffff167f5b690ec4a06fe979403046eaeea5b3ce38524683c3001f662c8b5a829632f7df60405160405180910390a260008173ffffffffffffffffffffffffffffffffffffffff1647604051610ce590611a0d565b60006040518083038185875af1925050503d8060008114610d22576040519150601f19603f3d011682016040523d82523d6000602084013e610d27565b606091505b5050905080610d62576040517f9594d81300000000000000000000000000000000000000000000000000000000815260040160405180910390fd5b505050505050565b60607f92fd13387c7fe7befbc38d303d6468778fb9731bc4583f17d92989c6fcfdeaaa82604051602401610d9e9190611a4d565b604051602081830303815290604052907bffffffffffffffffffffffffffffffffffffffffffffffffffffffff19166020820180517bffffffffffffffffffffffffffffffffffffffffffffffffffffffff83818316178352505050509050919050565b60008054906101000a900473ffffffffffffffffffffffffffffffffffffffff1673ffffffffffffffffffffffffffffffffffffffff163373ffffffffffffffffffffffffffffffffffffffff1614610e90576040517f08c379a0000000000000000000000000000000000000000000000000000000008152600401610e8790611ab4565b60405180910390fd5b565b3373ffffffffffffffffffffffffffffffffffffffff168173ffffffffffffffffffffffffffffffffffffffff1603610f00576040517f08c379a0000000000000000000000000000000000000000000000000000000008152600401610ef790611b20565b60405180910390fd5b80600160006101000a81548173ffffffffffffffffffffffffffffffffffffffff021916908373ffffffffffffffffffffffffffffffffffffffff1602179055508073ffffffffffffffffffffffffffffffffffffffff1660008054906101000a900473ffffffffffffffffffffffffffffffffffffffff1673ffffffffffffffffffffffffffffffffffffffff167fed8889f560326eb138920d842192f0eb3dd22b4f139c87a2c57538e05bae127860405160405180910390a350565b828054828255906000526020600020908101928215611037579160200282015b828111156110365782518260006101000a81548173ffffffffffffffffffffffffffffffffffffffff021916908373ffffffffffffffffffffffffffffffffffffffff16021790555091602001919060010190610fde565b5b5090506110449190611048565b5090565b5b80821115611061576000816000905550600101611049565b5090565b6000819050919050565b61107881611065565b82525050565b6000602082019050611093600083018461106f565b92915050565b6000604051905090565b600080fd5b600080fd5b6110b681611065565b81146110c157600080fd5b50565b6000813590506110d3816110ad565b92915050565b600080fd5b600080fd5b600080fd5b60008083601f8401126110fe576110fd6110d9565b5b8235905067ffffffffffffffff81111561111b5761111a6110de565b5b602083019150836020820283011115611137576111366110e3565b5b9250929050565b600080600060408486031215611157576111566110a3565b5b6000611165868287016110c4565b935050602084013567ffffffffffffffff811115611186576111856110a8565b5b611192868287016110e8565b92509250509250925092565b60008083601f8401126111b4576111b36110d9565b5b8235905067ffffffffffffffff8111156111d1576111d06110de565b5b6020830191508360018202830111156111ed576111ec6110e3565b5b9250929050565b6000806020838503121561120b5761120a6110a3565b5b600083013567ffffffffffffffff811115611229576112286110a8565b5b6112358582860161119e565b92509250509250929050565b600080fd5b6000601f19601f8301169050919050565b7f4e487b7100000000000000000000000000000000000000000000000000000000600052604160045260246000fd5b61128f82611246565b810181811067ffffffffffffffff821117156112ae576112ad611257565b5b80604052505050565b60006112c1611099565b90506112cd8282611286565b919050565b600067ffffffffffffffff8211156112ed576112ec611257565b5b6112f682611246565b9050602081019050919050565b82818337600083830152505050565b6000611325611320846112d2565b6112b7565b90508281526020810184848401111561134157611340611241565b5b61134c848285611303565b509392505050565b600082601f830112611369576113686110d9565b5b8135611379848260208601611312565b91505092915050565b600060208284031215611398576113976110a3565b5b600082013567ffffffffffffffff8111156113b6576113b56110a8565b5b6113c284828501611354565b91505092915050565b60008115159050919050565b6113e0816113cb565b82525050565b600081519050919050565b600082825260208201905092915050565b60005b83811015611420578082015181840152602081019050611405565b60008484015250505050565b6000611437826113e6565b61144181856113f1565b9350611451818560208601611402565b61145a81611246565b840191505092915050565b600060408201905061147a60008301856113d7565b818103602083015261148c818461142c565b90509392505050565b600073ffffffffffffffffffffffffffffffffffffffff82169050919050565b60006114c082611495565b9050919050565b6114d0816114b5565b82525050565b60006020820190506114eb60008301846114c7565b92915050565b6114fa816114b5565b811461150557600080fd5b50565b600081359050611517816114f1565b92915050565b600060208284031215611533576115326110a3565b5b600061154184828501611508565b91505092915050565b6000819050919050565b600061156f61156a61156584611495565b61154a565b611495565b9050919050565b600061158182611554565b9050919050565b600061159382611576565b9050919050565b6115a381611588565b82525050565b60006020820190506115be600083018461159a565b92915050565b60006040820190506115d960008301856114c7565b6115e660208301846114c7565b9392505050565b7f4e487b7100000000000000000000000000000000000000000000000000000000600052602160045260246000fd5b6002811061162d5761162c6115ed565b5b50565b600081905061163e8261161c565b919050565b600061164e82611630565b9050919050565b61165e81611643565b82525050565b6000606082019050611679600083018661106f565b611686602083018561106f565b6116936040830184611655565b949350505050565b6000819050919050565b6116ae8161169b565b82525050565b6116bd81611065565b82525050565b600061ffff82169050919050565b6116da816116c3565b82525050565b600063ffffffff82169050919050565b6116f9816116e0565b82525050565b600082825260208201905092915050565b600061171b826113e6565b61172581856116ff565b9350611735818560208601611402565b61173e81611246565b840191505092915050565b600060c08301600083015161176160008601826116a5565b50602083015161177460208601826116b4565b50604083015161178760408601826116d1565b50606083015161179a60608601826116f0565b5060808301516117ad60808601826116f0565b5060a083015184820360a08601526117c58282611710565b9150508091505092915050565b600060208201905081810360008301526117ec8184611749565b905092915050565b600081519050611803816110ad565b92915050565b60006020828403121561181f5761181e6110a3565b5b600061182d848285016117f4565b91505092915050565b7f4e487b7100000000000000000000000000000000000000000000000000000000600052601160045260246000fd5b600061187082611065565b915061187b83611065565b925082820390508181111561189357611892611836565b5b92915050565b600082825260208201905092915050565b7f4d7573742062652070726f706f736564206f776e657200000000000000000000600082015250565b60006118e0601683611899565b91506118eb826118aa565b602082019050919050565b6000602082019050818103600083015261190f816118d3565b9050919050565b600060608201905061192b60008301866114c7565b61193860208301856114c7565b61194560408301846114c7565b949350505050565b7f4e487b7100000000000000000000000000000000000000000000000000000000600052603260045260246000fd5b7f4e487b7100000000000000000000000000000000000000000000000000000000600052601260045260246000fd5b60006119b682611065565b91506119c183611065565b9250826119d1576119d061197c565b5b828206905092915050565b600081905092915050565b50565b60006119f76000836119dc565b9150611a02826119e7565b600082019050919050565b6000611a18826119ea565b9150819050919050565b611a2b816113cb565b82525050565b602082016000820151611a476000850182611a22565b50505050565b6000602082019050611a626000830184611a31565b92915050565b7f4f6e6c792063616c6c61626c65206279206f776e657200000000000000000000600082015250565b6000611a9e601683611899565b9150611aa982611a68565b602082019050919050565b60006020820190508181036000830152611acd81611a91565b9050919050565b7f43616e6e6f74207472616e7366657220746f2073656c66000000000000000000600082015250565b6000611b0a601783611899565b9150611b1582611ad4565b602082019050919050565b60006020820190508181036000830152611b3981611afd565b905091905056fea2646970667358221220784a26142eff337cf13d782fc5aeca473f5f07402875155958f2019d81fba79464736f6c63430008130033","linkReferences":{}},"methodIdentifiers":{"acceptOwnership()":"79ba5097","checkUpkeep(bytes)":"6e04ff0d","enterRaffle()":"2cfcc539","getEntranceFee()":"09bc33a7","owner()":"8da5cb5b","performUpkeep(bytes)":"4585e33b","rawFulfillRandomWords(uint256,uint256[])":"1fe543e3","s_vrfCoordinator()":"9eccacf6","setCoordinator(address)":"8ea98117","transferOwnership(address)":"f2fde38b"},"id":24}